{
  "_format": "hh-sol-artifact-1",
  "contractName": "OpenRewards",
  "sourceName": "contracts/OpenRewards.sol",
  "abi": [
    {
      "inputs": [
        {
          "internalType": "string",
          "name": "_repo",
          "type": "string"
        },
        {
          "internalType": "string",
          "name": "_metadata",
          "type": "string"
        }
      ],
      "stateMutability": "nonpayable",
      "type": "constructor"
    },
    {
      "anonymous": false,
      "inputs": [
        {
          "indexed": true,
          "internalType": "address",
          "name": "previousOwner",
          "type": "address"
        },
        {
          "indexed": true,
          "internalType": "address",
          "name": "newOwner",
          "type": "address"
        }
      ],
      "name": "OwnershipTransferred",
      "type": "event"
    },
    {
      "inputs": [
        {
          "internalType": "uint256",
          "name": "",
          "type": "uint256"
        }
      ],
      "name": "contributorUsernames",
      "outputs": [
        {
          "internalType": "string",
          "name": "",
          "type": "string"
        }
      ],
      "stateMutability": "view",
      "type": "function"
    },
    {
      "inputs": [
        {
          "internalType": "bytes32",
          "name": "_messageHash",
          "type": "bytes32"
        }
      ],
      "name": "getEthSignedMessageHash",
      "outputs": [
        {
          "internalType": "bytes32",
          "name": "",
          "type": "bytes32"
        }
      ],
      "stateMutability": "pure",
      "type": "function"
    },
    {
      "inputs": [
        {
          "internalType": "address",
          "name": "_to",
          "type": "address"
        },
        {
          "internalType": "string",
          "name": "_username",
          "type": "string"
        },
        {
          "internalType": "uint256",
          "name": "_nonce",
          "type": "uint256"
        }
      ],
      "name": "getMessageHash",
      "outputs": [
        {
          "internalType": "bytes32",
          "name": "",
          "type": "bytes32"
        }
      ],
      "stateMutability": "pure",
      "type": "function"
    },
    {
      "inputs": [],
      "name": "metadata",
      "outputs": [
        {
          "internalType": "string",
          "name": "",
          "type": "string"
        }
      ],
      "stateMutability": "view",
      "type": "function"
    },
    {
      "inputs": [
        {
          "internalType": "uint256",
          "name": "",
          "type": "uint256"
        }
      ],
      "name": "oldSplits",
      "outputs": [
        {
          "internalType": "address",
          "name": "",
          "type": "address"
        }
      ],
      "stateMutability": "view",
      "type": "function"
    },
    {
      "inputs": [],
      "name": "owner",
      "outputs": [
        {
          "internalType": "address",
          "name": "",
          "type": "address"
        }
      ],
      "stateMutability": "view",
      "type": "function"
    },
    {
      "inputs": [],
      "name": "payoutDuration",
      "outputs": [
        {
          "internalType": "uint256",
          "name": "",
          "type": "uint256"
        }
      ],
      "stateMutability": "view",
      "type": "function"
    },
    {
      "inputs": [],
      "name": "poolType",
      "outputs": [
        {
          "internalType": "string",
          "name": "",
          "type": "string"
        }
      ],
      "stateMutability": "view",
      "type": "function"
    },
    {
      "inputs": [
        {
          "internalType": "bytes32",
          "name": "_ethSignedMessageHash",
          "type": "bytes32"
        },
        {
          "internalType": "bytes",
          "name": "_signature",
          "type": "bytes"
        }
      ],
      "name": "recoverSigner",
      "outputs": [
        {
          "internalType": "address",
          "name": "",
          "type": "address"
        }
      ],
      "stateMutability": "pure",
      "type": "function"
    },
    {
      "inputs": [],
      "name": "renounceOwnership",
      "outputs": [],
      "stateMutability": "nonpayable",
      "type": "function"
    },
    {
      "inputs": [],
      "name": "repo",
      "outputs": [
        {
          "internalType": "string",
          "name": "",
          "type": "string"
        }
      ],
      "stateMutability": "view",
      "type": "function"
    },
    {
      "inputs": [],
      "name": "safeAddress",
      "outputs": [
        {
          "internalType": "address",
          "name": "",
          "type": "address"
        }
      ],
      "stateMutability": "view",
      "type": "function"
    },
    {
      "inputs": [
        {
          "internalType": "string",
          "name": "username",
          "type": "string"
        },
        {
          "internalType": "uint256",
          "name": "nonce",
          "type": "uint256"
        },
        {
          "internalType": "bytes",
          "name": "signature",
          "type": "bytes"
        }
      ],
      "name": "setAddress",
      "outputs": [],
      "stateMutability": "nonpayable",
      "type": "function"
    },
    {
      "inputs": [
        {
          "internalType": "string[]",
          "name": "_contributorUsernames",
          "type": "string[]"
        }
      ],
      "name": "setContributors",
      "outputs": [],
      "stateMutability": "nonpayable",
      "type": "function"
    },
    {
      "inputs": [
        {
          "internalType": "address",
          "name": "_safeAddress",
          "type": "address"
        }
      ],
      "name": "setSafe",
      "outputs": [],
      "stateMutability": "nonpayable",
      "type": "function"
    },
    {
      "inputs": [
        {
          "internalType": "address",
          "name": "_splitsAddress",
          "type": "address"
        }
      ],
      "name": "setSplits",
      "outputs": [],
      "stateMutability": "nonpayable",
      "type": "function"
    },
    {
      "inputs": [
        {
          "internalType": "address",
          "name": "_safeAddress",
          "type": "address"
        },
        {
          "internalType": "address",
          "name": "_splitsAddress",
          "type": "address"
        },
        {
          "internalType": "string",
          "name": "_poolType",
          "type": "string"
        },
        {
          "internalType": "uint256",
          "name": "_payoutDuration",
          "type": "uint256"
        }
      ],
      "name": "setState",
      "outputs": [],
      "stateMutability": "nonpayable",
      "type": "function"
    },
    {
      "inputs": [
        {
          "internalType": "bytes",
          "name": "sig",
          "type": "bytes"
        }
      ],
      "name": "splitSignature",
      "outputs": [
        {
          "internalType": "bytes32",
          "name": "r",
          "type": "bytes32"
        },
        {
          "internalType": "bytes32",
          "name": "s",
          "type": "bytes32"
        },
        {
          "internalType": "uint8",
          "name": "v",
          "type": "uint8"
        }
      ],
      "stateMutability": "pure",
      "type": "function"
    },
    {
      "inputs": [],
      "name": "splitsAddress",
      "outputs": [
        {
          "internalType": "address",
          "name": "",
          "type": "address"
        }
      ],
      "stateMutability": "view",
      "type": "function"
    },
    {
      "inputs": [
        {
          "internalType": "address",
          "name": "newOwner",
          "type": "address"
        }
      ],
      "name": "transferOwnership",
      "outputs": [],
      "stateMutability": "nonpayable",
      "type": "function"
    },
    {
      "inputs": [
        {
          "internalType": "address",
          "name": "_signer",
          "type": "address"
        },
        {
          "internalType": "address",
          "name": "_to",
          "type": "address"
        },
        {
          "internalType": "string",
          "name": "_username",
          "type": "string"
        },
        {
          "internalType": "uint256",
          "name": "_nonce",
          "type": "uint256"
        },
        {
          "internalType": "bytes",
          "name": "signature",
          "type": "bytes"
        }
      ],
      "name": "verify",
      "outputs": [
        {
          "internalType": "bool",
          "name": "",
          "type": "bool"
        }
      ],
      "stateMutability": "pure",
      "type": "function"
    }
  ],
  "bytecode": "0x6080604052739e332ade73a162544c0c1fad996db8b3ef4a9f77600160006101000a81548173ffffffffffffffffffffffffffffffffffffffff021916908373ffffffffffffffffffffffffffffffffffffffff1602179055506000600460006101000a81548173ffffffffffffffffffffffffffffffffffffffff021916908373ffffffffffffffffffffffffffffffffffffffff1602179055506000600760006101000a81548173ffffffffffffffffffffffffffffffffffffffff021916908373ffffffffffffffffffffffffffffffffffffffff160217905550348015620000ea57600080fd5b506040516200266b3803806200266b8339818101604052810190620001109190620003bb565b62000130620001246200015c60201b60201c565b6200016460201b60201c565b81600290816200014191906200068b565b5080600390816200015391906200068b565b50505062000772565b600033905090565b60008060009054906101000a900473ffffffffffffffffffffffffffffffffffffffff169050816000806101000a81548173ffffffffffffffffffffffffffffffffffffffff021916908373ffffffffffffffffffffffffffffffffffffffff1602179055508173ffffffffffffffffffffffffffffffffffffffff168173ffffffffffffffffffffffffffffffffffffffff167f8be0079c531659141344cd1fd0a4f28419497f9722a3daafe3b4186f6b6457e060405160405180910390a35050565b6000604051905090565b600080fd5b600080fd5b600080fd5b600080fd5b6000601f19601f8301169050919050565b7f4e487b7100000000000000000000000000000000000000000000000000000000600052604160045260246000fd5b620002918262000246565b810181811067ffffffffffffffff82111715620002b357620002b262000257565b5b80604052505050565b6000620002c862000228565b9050620002d6828262000286565b919050565b600067ffffffffffffffff821115620002f957620002f862000257565b5b620003048262000246565b9050602081019050919050565b60005b838110156200033157808201518184015260208101905062000314565b60008484015250505050565b6000620003546200034e84620002db565b620002bc565b90508281526020810184848401111562000373576200037262000241565b5b6200038084828562000311565b509392505050565b600082601f830112620003a0576200039f6200023c565b5b8151620003b28482602086016200033d565b91505092915050565b60008060408385031215620003d557620003d462000232565b5b600083015167ffffffffffffffff811115620003f657620003f562000237565b5b620004048582860162000388565b925050602083015167ffffffffffffffff81111562000428576200042762000237565b5b620004368582860162000388565b9150509250929050565b600081519050919050565b7f4e487b7100000000000000000000000000000000000000000000000000000000600052602260045260246000fd5b600060028204905060018216806200049357607f821691505b602082108103620004a957620004a86200044b565b5b50919050565b60008190508160005260206000209050919050565b60006020601f8301049050919050565b600082821b905092915050565b600060088302620005137fffffffffffffffffffffffffffffffffffffffffffffffffffffffffffffffff82620004d4565b6200051f8683620004d4565b95508019841693508086168417925050509392505050565b6000819050919050565b6000819050919050565b60006200056c62000566620005608462000537565b62000541565b62000537565b9050919050565b6000819050919050565b62000588836200054b565b620005a0620005978262000573565b848454620004e1565b825550505050565b600090565b620005b7620005a8565b620005c48184846200057d565b505050565b5b81811015620005ec57620005e0600082620005ad565b600181019050620005ca565b5050565b601f8211156200063b576200060581620004af565b6200061084620004c4565b8101602085101562000620578190505b620006386200062f85620004c4565b830182620005c9565b50505b505050565b600082821c905092915050565b6000620006606000198460080262000640565b1980831691505092915050565b60006200067b83836200064d565b9150826002028217905092915050565b620006968262000440565b67ffffffffffffffff811115620006b257620006b162000257565b5b620006be82546200047a565b620006cb828285620005f0565b600060209050601f831160018114620007035760008415620006ee578287015190505b620006fa85826200066d565b8655506200076a565b601f1984166200071386620004af565b60005b828110156200073d5784890151825560018201915060208501945060208101905062000716565b868310156200075d578489015162000759601f8916826200064d565b8355505b6001600288020188555050505b505050505050565b611ee980620007826000396000f3fe608060405234801561001057600080fd5b50600436106101375760003560e01c806378112a90116100b8578063b1dd61b61161007c578063b1dd61b61461033e578063bfa084ca1461035c578063c5214f8b14610378578063da0298dd14610396578063f2fde38b146103c6578063fa540801146103e257610137565b806378112a90146102725780638da5cb5b1461028e57806397aba7f9146102ac578063a7bb5803146102dc578063a918c06a1461030e57610137565b8063556be2f0116100ff578063556be2f0146101f45780635578110c1461021057806356ff31221461022e5780635db0cb941461024c578063715018a61461026857610137565b8063082d8f291461013c5780631e31549e1461016c5780633010f2b61461019c578063392f37e9146101ba5780634f747caa146101d8575b600080fd5b61015660048036038101906101519190611059565b610412565b60405161016391906110e1565b60405180910390f35b6101866004803603810190610181919061119d565b610448565b604051610193919061126b565b60405180910390f35b6101a46104aa565b6040516101b19190611295565b60405180910390f35b6101c26104d0565b6040516101cf919061132f565b60405180910390f35b6101f260048036038101906101ed9190611437565b61055e565b005b61020e600480360381019061020991906114db565b610580565b005b61021861062a565b6040516102259190611295565b60405180910390f35b610236610650565b604051610243919061132f565b60405180910390f35b61026660048036038101906102619190611563565b6106de565b005b61027061072a565b005b61028c60048036038101906102879190611563565b61073e565b005b610296610866565b6040516102a39190611295565b60405180910390f35b6102c660048036038101906102c191906115bc565b61088f565b6040516102d39190611295565b60405180910390f35b6102f660048036038101906102f19190611618565b6108fe565b6040516103059392919061167d565b60405180910390f35b610328600480360381019061032391906116b4565b610966565b6040516103359190611295565b60405180910390f35b6103466109a5565b604051610353919061132f565b60405180910390f35b610376600480360381019061037191906116e1565b610a33565b005b610380610ae2565b60405161038d919061177b565b60405180910390f35b6103b060048036038101906103ab91906116b4565b610ae8565b6040516103bd919061132f565b60405180910390f35b6103e060048036038101906103db9190611563565b610b94565b005b6103fc60048036038101906103f79190611796565b610c17565b60405161040991906110e1565b60405180910390f35b600083838360405160200161042993929190611868565b6040516020818303038152906040528051906020012090509392505050565b600080610456868686610412565b9050600061046382610c17565b90508773ffffffffffffffffffffffffffffffffffffffff16610486828661088f565b73ffffffffffffffffffffffffffffffffffffffff16149250505095945050505050565b600760009054906101000a900473ffffffffffffffffffffffffffffffffffffffff1681565b600380546104dd906118d0565b80601f0160208091040260200160405190810160405280929190818152602001828054610509906118d0565b80156105565780601f1061052b57610100808354040283529160200191610556565b820191906000526020600020905b81548152906001019060200180831161053957829003601f168201915b505050505081565b610566610c47565b806009908051906020019061057c929190610d91565b5050565b610588610c47565b84600460006101000a81548173ffffffffffffffffffffffffffffffffffffffff021916908373ffffffffffffffffffffffffffffffffffffffff16021790555083600760006101000a81548173ffffffffffffffffffffffffffffffffffffffff021916908373ffffffffffffffffffffffffffffffffffffffff16021790555082826005918261061b929190611ab8565b50806006819055505050505050565b600460009054906101000a900473ffffffffffffffffffffffffffffffffffffffff1681565b6002805461065d906118d0565b80601f0160208091040260200160405190810160405280929190818152602001828054610689906118d0565b80156106d65780601f106106ab576101008083540402835291602001916106d6565b820191906000526020600020905b8154815290600101906020018083116106b957829003601f168201915b505050505081565b6106e6610c47565b80600460006101000a81548173ffffffffffffffffffffffffffffffffffffffff021916908373ffffffffffffffffffffffffffffffffffffffff16021790555050565b610732610c47565b61073c6000610cc5565b565b610746610c47565b600073ffffffffffffffffffffffffffffffffffffffff16600760009054906101000a900473ffffffffffffffffffffffffffffffffffffffff1673ffffffffffffffffffffffffffffffffffffffff1614610822576008600760009054906101000a900473ffffffffffffffffffffffffffffffffffffffff169080600181540180825580915050600190039060005260206000200160009091909190916101000a81548173ffffffffffffffffffffffffffffffffffffffff021916908373ffffffffffffffffffffffffffffffffffffffff1602179055505b80600760006101000a81548173ffffffffffffffffffffffffffffffffffffffff021916908373ffffffffffffffffffffffffffffffffffffffff16021790555050565b60008060009054906101000a900473ffffffffffffffffffffffffffffffffffffffff16905090565b60008060008061089e856108fe565b925092509250600186828585604051600081526020016040526040516108c79493929190611b88565b6020604051602081039080840390855afa1580156108e9573d6000803e3d6000fd5b50505060206040510351935050505092915050565b60008060006041845114610947576040517f08c379a000000000000000000000000000000000000000000000000000000000815260040161093e90611c19565b60405180910390fd5b6020840151925060408401519150606084015160001a90509193909250565b6008818154811061097657600080fd5b906000526020600020016000915054906101000a900473ffffffffffffffffffffffffffffffffffffffff1681565b600580546109b2906118d0565b80601f01602080910402602001604051908101604052809291908181526020018280546109de906118d0565b8015610a2b5780601f10610a0057610100808354040283529160200191610a2b565b820191906000526020600020905b815481529060010190602001808311610a0e57829003601f168201915b505050505081565b82600a60003373ffffffffffffffffffffffffffffffffffffffff1673ffffffffffffffffffffffffffffffffffffffff1681526020019081526020016000209081610a7f9190611c39565b5033600b84604051610a919190611d0b565b908152602001604051809103902060006101000a81548173ffffffffffffffffffffffffffffffffffffffff021916908373ffffffffffffffffffffffffffffffffffffffff160217905550505050565b60065481565b60098181548110610af857600080fd5b906000526020600020016000915090508054610b13906118d0565b80601f0160208091040260200160405190810160405280929190818152602001828054610b3f906118d0565b8015610b8c5780601f10610b6157610100808354040283529160200191610b8c565b820191906000526020600020905b815481529060010190602001808311610b6f57829003601f168201915b505050505081565b610b9c610c47565b600073ffffffffffffffffffffffffffffffffffffffff168173ffffffffffffffffffffffffffffffffffffffff1603610c0b576040517f08c379a0000000000000000000000000000000000000000000000000000000008152600401610c0290611d94565b60405180910390fd5b610c1481610cc5565b50565b600081604051602001610c2a9190611e21565b604051602081830303815290604052805190602001209050919050565b610c4f610d89565b73ffffffffffffffffffffffffffffffffffffffff16610c6d610866565b73ffffffffffffffffffffffffffffffffffffffff1614610cc3576040517f08c379a0000000000000000000000000000000000000000000000000000000008152600401610cba90611e93565b60405180910390fd5b565b60008060009054906101000a900473ffffffffffffffffffffffffffffffffffffffff169050816000806101000a81548173ffffffffffffffffffffffffffffffffffffffff021916908373ffffffffffffffffffffffffffffffffffffffff1602179055508173ffffffffffffffffffffffffffffffffffffffff168173ffffffffffffffffffffffffffffffffffffffff167f8be0079c531659141344cd1fd0a4f28419497f9722a3daafe3b4186f6b6457e060405160405180910390a35050565b600033905090565b828054828255906000526020600020908101928215610dd9579160200282015b82811115610dd8578251829081610dc89190611c39565b5091602001919060010190610db1565b5b509050610de69190610dea565b5090565b5b80821115610e0a5760008181610e019190610e0e565b50600101610deb565b5090565b508054610e1a906118d0565b6000825580601f10610e2c5750610e4b565b601f016020900490600052602060002090810190610e4a9190610e4e565b5b50565b5b80821115610e67576000816000905550600101610e4f565b5090565b6000604051905090565b600080fd5b600080fd5b600073ffffffffffffffffffffffffffffffffffffffff82169050919050565b6000610eaa82610e7f565b9050919050565b610eba81610e9f565b8114610ec557600080fd5b50565b600081359050610ed781610eb1565b92915050565b600080fd5b600080fd5b6000601f19601f8301169050919050565b7f4e487b7100000000000000000000000000000000000000000000000000000000600052604160045260246000fd5b610f3082610ee7565b810181811067ffffffffffffffff82111715610f4f57610f4e610ef8565b5b80604052505050565b6000610f62610e6b565b9050610f6e8282610f27565b919050565b600067ffffffffffffffff821115610f8e57610f8d610ef8565b5b610f9782610ee7565b9050602081019050919050565b82818337600083830152505050565b6000610fc6610fc184610f73565b610f58565b905082815260208101848484011115610fe257610fe1610ee2565b5b610fed848285610fa4565b509392505050565b600082601f83011261100a57611009610edd565b5b813561101a848260208601610fb3565b91505092915050565b6000819050919050565b61103681611023565b811461104157600080fd5b50565b6000813590506110538161102d565b92915050565b60008060006060848603121561107257611071610e75565b5b600061108086828701610ec8565b935050602084013567ffffffffffffffff8111156110a1576110a0610e7a565b5b6110ad86828701610ff5565b92505060406110be86828701611044565b9150509250925092565b6000819050919050565b6110db816110c8565b82525050565b60006020820190506110f660008301846110d2565b92915050565b600067ffffffffffffffff82111561111757611116610ef8565b5b61112082610ee7565b9050602081019050919050565b600061114061113b846110fc565b610f58565b90508281526020810184848401111561115c5761115b610ee2565b5b611167848285610fa4565b509392505050565b600082601f83011261118457611183610edd565b5b813561119484826020860161112d565b91505092915050565b600080600080600060a086880312156111b9576111b8610e75565b5b60006111c788828901610ec8565b95505060206111d888828901610ec8565b945050604086013567ffffffffffffffff8111156111f9576111f8610e7a565b5b61120588828901610ff5565b935050606061121688828901611044565b925050608086013567ffffffffffffffff81111561123757611236610e7a565b5b6112438882890161116f565b9150509295509295909350565b60008115159050919050565b61126581611250565b82525050565b6000602082019050611280600083018461125c565b92915050565b61128f81610e9f565b82525050565b60006020820190506112aa6000830184611286565b92915050565b600081519050919050565b600082825260208201905092915050565b60005b838110156112ea5780820151818401526020810190506112cf565b60008484015250505050565b6000611301826112b0565b61130b81856112bb565b935061131b8185602086016112cc565b61132481610ee7565b840191505092915050565b6000602082019050818103600083015261134981846112f6565b905092915050565b600067ffffffffffffffff82111561136c5761136b610ef8565b5b602082029050602081019050919050565b600080fd5b600061139561139084611351565b610f58565b905080838252602082019050602084028301858111156113b8576113b761137d565b5b835b818110156113ff57803567ffffffffffffffff8111156113dd576113dc610edd565b5b8086016113ea8982610ff5565b855260208501945050506020810190506113ba565b5050509392505050565b600082601f83011261141e5761141d610edd565b5b813561142e848260208601611382565b91505092915050565b60006020828403121561144d5761144c610e75565b5b600082013567ffffffffffffffff81111561146b5761146a610e7a565b5b61147784828501611409565b91505092915050565b600080fd5b60008083601f84011261149b5761149a610edd565b5b8235905067ffffffffffffffff8111156114b8576114b7611480565b5b6020830191508360018202830111156114d4576114d361137d565b5b9250929050565b6000806000806000608086880312156114f7576114f6610e75565b5b600061150588828901610ec8565b955050602061151688828901610ec8565b945050604086013567ffffffffffffffff81111561153757611536610e7a565b5b61154388828901611485565b9350935050606061155688828901611044565b9150509295509295909350565b60006020828403121561157957611578610e75565b5b600061158784828501610ec8565b91505092915050565b611599816110c8565b81146115a457600080fd5b50565b6000813590506115b681611590565b92915050565b600080604083850312156115d3576115d2610e75565b5b60006115e1858286016115a7565b925050602083013567ffffffffffffffff81111561160257611601610e7a565b5b61160e8582860161116f565b9150509250929050565b60006020828403121561162e5761162d610e75565b5b600082013567ffffffffffffffff81111561164c5761164b610e7a565b5b6116588482850161116f565b91505092915050565b600060ff82169050919050565b61167781611661565b82525050565b600060608201905061169260008301866110d2565b61169f60208301856110d2565b6116ac604083018461166e565b949350505050565b6000602082840312156116ca576116c9610e75565b5b60006116d884828501611044565b91505092915050565b6000806000606084860312156116fa576116f9610e75565b5b600084013567ffffffffffffffff81111561171857611717610e7a565b5b61172486828701610ff5565b935050602061173586828701611044565b925050604084013567ffffffffffffffff81111561175657611755610e7a565b5b6117628682870161116f565b9150509250925092565b61177581611023565b82525050565b6000602082019050611790600083018461176c565b92915050565b6000602082840312156117ac576117ab610e75565b5b60006117ba848285016115a7565b91505092915050565b60008160601b9050919050565b60006117db826117c3565b9050919050565b60006117ed826117d0565b9050919050565b61180561180082610e9f565b6117e2565b82525050565b600081905092915050565b6000611821826112b0565b61182b818561180b565b935061183b8185602086016112cc565b80840191505092915050565b6000819050919050565b61186261185d82611023565b611847565b82525050565b600061187482866117f4565b6014820191506118848285611816565b91506118908284611851565b602082019150819050949350505050565b7f4e487b7100000000000000000000000000000000000000000000000000000000600052602260045260246000fd5b600060028204905060018216806118e857607f821691505b6020821081036118fb576118fa6118a1565b5b50919050565b600082905092915050565b60008190508160005260206000209050919050565b60006020601f8301049050919050565b600082821b905092915050565b60006008830261196e7fffffffffffffffffffffffffffffffffffffffffffffffffffffffffffffffff82611931565b6119788683611931565b95508019841693508086168417925050509392505050565b6000819050919050565b60006119b56119b06119ab84611023565b611990565b611023565b9050919050565b6000819050919050565b6119cf8361199a565b6119e36119db826119bc565b84845461193e565b825550505050565b600090565b6119f86119eb565b611a038184846119c6565b505050565b5b81811015611a2757611a1c6000826119f0565b600181019050611a09565b5050565b601f821115611a6c57611a3d8161190c565b611a4684611921565b81016020851015611a55578190505b611a69611a6185611921565b830182611a08565b50505b505050565b600082821c905092915050565b6000611a8f60001984600802611a71565b1980831691505092915050565b6000611aa88383611a7e565b9150826002028217905092915050565b611ac28383611901565b67ffffffffffffffff811115611adb57611ada610ef8565b5b611ae582546118d0565b611af0828285611a2b565b6000601f831160018114611b1f5760008415611b0d578287013590505b611b178582611a9c565b865550611b7f565b601f198416611b2d8661190c565b60005b82811015611b5557848901358255600182019150602085019450602081019050611b30565b86831015611b725784890135611b6e601f891682611a7e565b8355505b6001600288020188555050505b50505050505050565b6000608082019050611b9d60008301876110d2565b611baa602083018661166e565b611bb760408301856110d2565b611bc460608301846110d2565b95945050505050565b7f696e76616c6964207369676e6174757265206c656e6774680000000000000000600082015250565b6000611c036018836112bb565b9150611c0e82611bcd565b602082019050919050565b60006020820190508181036000830152611c3281611bf6565b9050919050565b611c42826112b0565b67ffffffffffffffff811115611c5b57611c5a610ef8565b5b611c6582546118d0565b611c70828285611a2b565b600060209050601f831160018114611ca35760008415611c91578287015190505b611c9b8582611a9c565b865550611d03565b601f198416611cb18661190c565b60005b82811015611cd957848901518255600182019150602085019450602081019050611cb4565b86831015611cf65784890151611cf2601f891682611a7e565b8355505b6001600288020188555050505b505050505050565b6000611d178284611816565b915081905092915050565b7f4f776e61626c653a206e6577206f776e657220697320746865207a65726f206160008201527f6464726573730000000000000000000000000000000000000000000000000000602082015250565b6000611d7e6026836112bb565b9150611d8982611d22565b604082019050919050565b60006020820190508181036000830152611dad81611d71565b9050919050565b7f19457468657265756d205369676e6564204d6573736167653a0a333200000000600082015250565b6000611dea601c8361180b565b9150611df582611db4565b601c82019050919050565b6000819050919050565b611e1b611e16826110c8565b611e00565b82525050565b6000611e2c82611ddd565b9150611e388284611e0a565b60208201915081905092915050565b7f4f776e61626c653a2063616c6c6572206973206e6f7420746865206f776e6572600082015250565b6000611e7d6020836112bb565b9150611e8882611e47565b602082019050919050565b60006020820190508181036000830152611eac81611e70565b905091905056fea26469706673582212209dfd9d5ea015d2f4b82bc3295ed8a82cce1749885d12bfb00c51ea783114685e64736f6c63430008110033",
  "linkReferences": {},
  "deployedLinkReferences": {}
}